{
  "_format": "hh-sol-artifact-1",
  "contractName": "Register_transaction",
  "sourceName": "contracts/Register_transaction.sol",
  "Nodo_Alchemy": "https://polygon-amoy.g.alchemy.com/v2/WCCpbH7LWuhhVDr3lnri9SisCJqWqSYm",
  "adress_contract": "0xf59B8A6E6Cc922dE036c855d49e00302E767B48d",
  "abi": [
    {
      "anonymous": false,
      "inputs": [
        {
          "indexed": true,
          "internalType": "address",
          "name": "_comprador",
          "type": "address"
        },
        {
          "indexed": true,
          "internalType": "address",
          "name": "_vendedor",
          "type": "address"
        },
        {
          "indexed": false,
          "internalType": "uint256",
          "name": "_cantidadPotencia",
          "type": "uint256"
        },
        {
          "indexed": false,
          "internalType": "uint256",
          "name": "_precioDeVenta",
          "type": "uint256"
        }
      ],
      "name": "transaccionRealizada",
      "type": "event"
    },
    {
      "inputs": [
        {
          "internalType": "address payable",
          "name": "_vendedor",
          "type": "address"
        },
        {
          "internalType": "uint256",
          "name": "_cantidadPotencia",
          "type": "uint256"
        }
      ],
      "name": "comprarEnergia",
      "outputs": [],
      "stateMutability": "payable",
      "type": "function"
    }
  ],
  "bytecode": "0x608060405234801561001057600080fd5b5061041f806100206000396000f3fe60806040526004361061001e5760003560e01c806353296b4414610023575b600080fd5b61003d6004803603810190610038919061023c565b61003f565b005b600073ffffffffffffffffffffffffffffffffffffffff168273ffffffffffffffffffffffffffffffffffffffff16036100ae576040517f08c379a00000000000000000000000000000000000000000000000000000000081526004016100a5906102ff565b60405180910390fd5b600034116100f1576040517f08c379a00000000000000000000000000000000000000000000000000000000081526004016100e890610391565b60405180910390fd5b8173ffffffffffffffffffffffffffffffffffffffff166108fc349081150290604051600060405180830381858888f19350505050158015610137573d6000803e3d6000fd5b508173ffffffffffffffffffffffffffffffffffffffff163373ffffffffffffffffffffffffffffffffffffffff167f5b68b03c0da8d602af0eeed11ba192e0e217c205241b4506b29cac27d288d92283346040516101979291906103c0565b60405180910390a35050565b600080fd5b600073ffffffffffffffffffffffffffffffffffffffff82169050919050565b60006101d3826101a8565b9050919050565b6101e3816101c8565b81146101ee57600080fd5b50565b600081359050610200816101da565b92915050565b6000819050919050565b61021981610206565b811461022457600080fd5b50565b60008135905061023681610210565b92915050565b60008060408385031215610253576102526101a3565b5b6000610261858286016101f1565b925050602061027285828601610227565b9150509250929050565b600082825260208201905092915050565b7f4c6120646972656363696f6e2064656c2076656e6465646f72206e6f2070756560008201527f646520736572206e756c612e0000000000000000000000000000000000000000602082015250565b60006102e9602c8361027c565b91506102f48261028d565b604082019050919050565b60006020820190508181036000830152610318816102dc565b9050919050565b7f4465626520656e766961722065746865722070617261207265616c697a61722060008201527f6c61207472616e73616363696f6e2e0000000000000000000000000000000000602082015250565b600061037b602f8361027c565b91506103868261031f565b604082019050919050565b600060208201905081810360008301526103aa8161036e565b9050919050565b6103ba81610206565b82525050565b60006040820190506103d560008301856103b1565b6103e260208301846103b1565b939250505056fea26469706673582212200e6093736eab9d99afb27ff5459066ad4a6c34d7fded3cb6880819a378a7454964736f6c63430008180033",
  "linkReferences": {},
  "deployedLinkReferences": {}
}