{
    "_format": "hh-sol-artifact-1",
    "contractName": "OptimizationControl3",
    "sourceName": "contracts/P2P_prueba3.sol",
    "Nodo_Alchemy": "https://polygon-amoy.g.alchemy.com/v2/WCCpbH7LWuhhVDr3lnri9SisCJqWqSYm",
    "adress_contract": "0x3A7F99265C343D319036c3272a9785200B09Fbbe",
    "abi": [
        {
            "inputs": [
                {
                    "internalType": "uint256",
                    "name": "_numberAgentes",
                    "type": "uint256"
                },
                {
                    "internalType": "uint256",
                    "name": "_potenciaDemandada",
                    "type": "uint256"
                }
            ],
            "stateMutability": "nonpayable",
            "type": "constructor"
        },
        {
            "inputs": [],
            "name": "adminAgente",
            "outputs": [
                {
                    "internalType": "address",
                    "name": "",
                    "type": "address"
                }
            ],
            "stateMutability": "view",
            "type": "function"
        },
        {
            "inputs": [
                {
                    "internalType": "address",
                    "name": "",
                    "type": "address"
                }
            ],
            "name": "agentes",
            "outputs": [
                {
                    "internalType": "uint256",
                    "name": "potenciaEntregada",
                    "type": "uint256"
                },
                {
                    "internalType": "address",
                    "name": "identification",
                    "type": "address"
                }
            ],
            "stateMutability": "view",
            "type": "function"
        },
        {
            "inputs": [
                {
                    "internalType": "uint256",
                    "name": "_numberAgentes",
                    "type": "uint256"
                },
                {
                    "internalType": "uint256",
                    "name": "_potenciaDemandada",
                    "type": "uint256"
                }
            ],
            "name": "changeParamtres",
            "outputs": [],
            "stateMutability": "nonpayable",
            "type": "function"
        },
        {
            "inputs": [],
            "name": "getNumberAgentes",
            "outputs": [
                {
                    "internalType": "uint256",
                    "name": "",
                    "type": "uint256"
                }
            ],
            "stateMutability": "view",
            "type": "function"
        },
        {
            "inputs": [],
            "name": "getPotenciaDemandada",
            "outputs": [
                {
                    "internalType": "uint256",
                    "name": "",
                    "type": "uint256"
                }
            ],
            "stateMutability": "view",
            "type": "function"
        },
        {
            "inputs": [],
            "name": "getSumPotencias",
            "outputs": [
                {
                    "internalType": "uint256",
                    "name": "",
                    "type": "uint256"
                }
            ],
            "stateMutability": "view",
            "type": "function"
        },
        {
            "inputs": [],
            "name": "numberAgentes",
            "outputs": [
                {
                    "internalType": "uint256",
                    "name": "",
                    "type": "uint256"
                }
            ],
            "stateMutability": "view",
            "type": "function"
        },
        {
            "inputs": [],
            "name": "potenciaDemandada",
            "outputs": [
                {
                    "internalType": "uint256",
                    "name": "",
                    "type": "uint256"
                }
            ],
            "stateMutability": "view",
            "type": "function"
        },
        {
            "inputs": [],
            "name": "register",
            "outputs": [],
            "stateMutability": "nonpayable",
            "type": "function"
        },
        {
            "inputs": [
                {
                    "internalType": "uint256",
                    "name": "potencia",
                    "type": "uint256"
                }
            ],
            "name": "sendData",
            "outputs": [],
            "stateMutability": "nonpayable",
            "type": "function"
        },
        {
            "inputs": [],
            "name": "sumPotencias",
            "outputs": [
                {
                    "internalType": "uint256",
                    "name": "",
                    "type": "uint256"
                }
            ],
            "stateMutability": "view",
            "type": "function"
        }
    ],
    "bytecode": "0x60806040523480156200001157600080fd5b5060405162000d6438038062000d648339818101604052810190620000379190620002e5565b33600360006101000a81548173ffffffffffffffffffffffffffffffffffffffff021916908373ffffffffffffffffffffffffffffffffffffffff1602179055508060018190555081600081905550620000cb600360009054906101000a900473ffffffffffffffffffffffffffffffffffffffff16600054600154620000bf91906200038a565b6200023c60201b60201c565b600054600154620000dd91906200038a565b60046000600360009054906101000a900473ffffffffffffffffffffffffffffffffffffffff1673ffffffffffffffffffffffffffffffffffffffff1673ffffffffffffffffffffffffffffffffffffffff1681526020019081526020016000206000018190555060046000600360009054906101000a900473ffffffffffffffffffffffffffffffffffffffff1673ffffffffffffffffffffffffffffffffffffffff1673ffffffffffffffffffffffffffffffffffffffff16815260200190815260200160002060020160046000600360009054906101000a900473ffffffffffffffffffffffffffffffffffffffff1673ffffffffffffffffffffffffffffffffffffffff1673ffffffffffffffffffffffffffffffffffffffff168152602001908152602001600020600001549080600181540180825580915050600190039060005260206000200160009091909190915055505062000438565b80600460008473ffffffffffffffffffffffffffffffffffffffff1673ffffffffffffffffffffffffffffffffffffffff168152602001908152602001600020600001546002546200028f9190620003c2565b6200029b9190620003fd565b6002819055505050565b600080fd5b6000819050919050565b620002bf81620002aa565b8114620002cb57600080fd5b50565b600081519050620002df81620002b4565b92915050565b60008060408385031215620002ff57620002fe620002a5565b5b60006200030f85828601620002ce565b92505060206200032285828601620002ce565b9150509250929050565b7f4e487b7100000000000000000000000000000000000000000000000000000000600052601260045260246000fd5b7f4e487b7100000000000000000000000000000000000000000000000000000000600052601160045260246000fd5b60006200039782620002aa565b9150620003a483620002aa565b925082620003b757620003b66200032c565b5b828204905092915050565b6000620003cf82620002aa565b9150620003dc83620002aa565b9250828203905081811115620003f757620003f66200035b565b5b92915050565b60006200040a82620002aa565b91506200041783620002aa565b92508282019050808211156200043257620004316200035b565b5b92915050565b61091c80620004486000396000f3fe608060405234801561001057600080fd5b50600436106100a95760003560e01c806377d67a3b1161007157806377d67a3b1461012e57806386e13cd21461014c5780639cd5e4551461017d5780639ed5d7f51461019b578063db509a0c146101b9578063dcad35c7146101d7576100a9565b80631aa3a008146100ae57806326fa12b0146100b857806335e0a872146100d65780633e1c95be146100f45780634f2e522f14610112575b600080fd5b6100b66101f3565b005b6100c0610276565b6040516100cd9190610658565b60405180910390f35b6100de61027c565b6040516100eb9190610658565b60405180910390f35b6100fc610285565b6040516101099190610658565b60405180910390f35b61012c600480360381019061012791906106a4565b61028f565b005b61013661049d565b6040516101439190610725565b60405180910390f35b6101666004803603810190610161919061076c565b6104c3565b604051610174929190610799565b60405180910390f35b610185610507565b6040516101929190610658565b60405180910390f35b6101a361050d565b6040516101b09190610658565b60405180910390f35b6101c1610517565b6040516101ce9190610658565b60405180910390f35b6101f160048036038101906101ec91906107c2565b61051d565b005b33600460003373ffffffffffffffffffffffffffffffffffffffff1673ffffffffffffffffffffffffffffffffffffffff16815260200190815260200160002060010160006101000a81548173ffffffffffffffffffffffffffffffffffffffff021916908373ffffffffffffffffffffffffffffffffffffffff160217905550565b60015481565b60008054905090565b6000600254905090565b3373ffffffffffffffffffffffffffffffffffffffff16600360009054906101000a900473ffffffffffffffffffffffffffffffffffffffff1673ffffffffffffffffffffffffffffffffffffffff16146102e957600080fd5b8060018190555081600081905550610332600360009054906101000a900473ffffffffffffffffffffffffffffffffffffffff1660005460015461032d919061084d565b6105da565b600054600154610342919061084d565b60046000600360009054906101000a900473ffffffffffffffffffffffffffffffffffffffff1673ffffffffffffffffffffffffffffffffffffffff1673ffffffffffffffffffffffffffffffffffffffff1681526020019081526020016000206000018190555060046000600360009054906101000a900473ffffffffffffffffffffffffffffffffffffffff1673ffffffffffffffffffffffffffffffffffffffff1673ffffffffffffffffffffffffffffffffffffffff16815260200190815260200160002060020160046000600360009054906101000a900473ffffffffffffffffffffffffffffffffffffffff1673ffffffffffffffffffffffffffffffffffffffff1673ffffffffffffffffffffffffffffffffffffffff1681526020019081526020016000206000015490806001815401808255809150506001900390600052602060002001600090919091909150555050565b600360009054906101000a900473ffffffffffffffffffffffffffffffffffffffff1681565b60046020528060005260406000206000915090508060000154908060010160009054906101000a900473ffffffffffffffffffffffffffffffffffffffff16905082565b60005481565b6000600154905090565b60025481565b61052733826105da565b80600460003373ffffffffffffffffffffffffffffffffffffffff1673ffffffffffffffffffffffffffffffffffffffff16815260200190815260200160002060000181905550600460003373ffffffffffffffffffffffffffffffffffffffff1673ffffffffffffffffffffffffffffffffffffffff16815260200190815260200160002060020181908060018154018082558091505060019003906000526020600020016000909190919091505550565b80600460008473ffffffffffffffffffffffffffffffffffffffff1673ffffffffffffffffffffffffffffffffffffffff1681526020019081526020016000206000015460025461062b919061087e565b61063591906108b2565b6002819055505050565b6000819050919050565b6106528161063f565b82525050565b600060208201905061066d6000830184610649565b92915050565b600080fd5b6106818161063f565b811461068c57600080fd5b50565b60008135905061069e81610678565b92915050565b600080604083850312156106bb576106ba610673565b5b60006106c98582860161068f565b92505060206106da8582860161068f565b9150509250929050565b600073ffffffffffffffffffffffffffffffffffffffff82169050919050565b600061070f826106e4565b9050919050565b61071f81610704565b82525050565b600060208201905061073a6000830184610716565b92915050565b61074981610704565b811461075457600080fd5b50565b60008135905061076681610740565b92915050565b60006020828403121561078257610781610673565b5b600061079084828501610757565b91505092915050565b60006040820190506107ae6000830185610649565b6107bb6020830184610716565b9392505050565b6000602082840312156107d8576107d7610673565b5b60006107e68482850161068f565b91505092915050565b7f4e487b7100000000000000000000000000000000000000000000000000000000600052601260045260246000fd5b7f4e487b7100000000000000000000000000000000000000000000000000000000600052601160045260246000fd5b60006108588261063f565b91506108638361063f565b925082610873576108726107ef565b5b828204905092915050565b60006108898261063f565b91506108948361063f565b92508282039050818111156108ac576108ab61081e565b5b92915050565b60006108bd8261063f565b91506108c88361063f565b92508282019050808211156108e0576108df61081e565b5b9291505056fea26469706673582212200d9de9ef5a7aa506b537c963cf6ee0fbb00adbe8823be3ebe658589cda8ad0f164736f6c63430008180033",
    "linkReferences": {},
    "deployedLinkReferences": {}
}